:100000000328FF3FFF3FEE2383120313850183166E
:100010008501393086007F308105EE210830831656
:10002000D300972117308316D300972114308316FD
:10003000D300972101308316D30097210C3083160B
:10004000D300972106308316D30097210230831600
:10005000D300972101308316CE000130CF004C3001
:10006000D0003C2202308316CE000130CF00293070
:10007000D0003C2219308316990018154D230A3000
:10008000E9006908103C031C5D2802308316CB0090
:10009000831269088316CC002E30CD00BA220230BC
:1000A000FB008630FC009930FD00FD0B5528FC0B51
:1000B0005528FB0B5528E90A41280630FB00133070
:1000C000FC00AD30FD00FD0B6328FC0B6328FB0B2F
:1000D00063280000000020308316CB002223B101EA
:1000E000B1010130D30097215D308316CB00013080
:1000F000CC0039236030CB000830CC003923663087
:10010000CB001030CC0039236330CB002030CC0042
:100110003923C701C8018312EA01EF01EE018316FA
:10012000C401C6019A2370080319DD285D237008F5
:100130008316C50001308312ED00D02883120130F0
:10014000EE008316C601DA280130C400C601DA28A1
:1001500083126E080319BC2883164608003C031856
:10016000BC284608A03E84004508800010304602A6
:10017000031CBC288312EE01831644080319CF2800
:100180004608003C0318CF284608B23E84004508C4
:10019000800010304602031CCF28C401F222DA2866
:1001A00083164508153A03199E284508163A03197F
:1001B000A428A8288316C60A90298312ED01393095
:1001C0000605EB006B088316CB006630CC007F225F
:1001D00083126B088316CB005D30CC007F22831224
:1001E0006B088316CB006030CC007F2283126B0833
:1001F0008316CB006330CC007F22A823700803193C
:1002000090298312B7015F080130031D0030F00010
:100210005E08F005031D1A295E08031919293F30ED
:1002200083164802031D1629FF304702031C1929B3
:100230001A291C2983123714831262080130031D06
:100240000030F0006108F005031D3429610803192E
:1002500033293F3083164802031D3029FF304702FF
:10026000031C3329342936298312B71483126508F5
:100270000130031D0030F0006408F005031D4E2915
:10028000640803194D297F3083164802031D4A294B
:10029000FF304702031C4D294E2950298312B71500
:1002A000831268080130031D0030F0006708F00574
:1002B00003195B2937156708031970297F308316E6
:1002C0004802031D6529FF304702031C7029831271
:1002D00037156A08053C03186F293714B7147229BB
:1002E0008312EA013708003A031990293708F83CCD
:1002F000B90032308316CB0022231430FC00793051
:10030000FD00FD0B8129FC0B812900000000FF305E
:1003100083126A0203188D29EA0AEE018316C401CA
:1003200092289129FF3FFF3FFF3FFF3FFF3F83168A
:100330000313D31B9E2983128613A02983128617C9
:100340008316531BA62983120613A82983120617A6
:100350008316D31AAE2983128513B0298312851709
:100360008316531AB62983120513B8298312051769
:100370006C18BC290516BD2905128515AF238511FA
:100380008316D319C62983128613C82983128617A8
:1003900083165319CE2983120613D0298312061708
:1003A0008316D318D62983128513D829831285176B
:1003B00083165318DE2983120513E02983120517CB
:1003C0006C18E4290516E52905128515AF2385115A
:1003D0006C1CEC296823ED29922308008316031373
:1003E00085110512051385130613861383128511D3
:1003F00005128613061385130513682368236823E3
:10040000851705178515AF23851168238515AF233B
:10041000851168238515AF2385116823051385157C
:10042000AF23851168238515AF23851185138617A2
:100430008515AF2385116823861305178515AF230E
:10044000851105138515AF23851168238515AF2305
:10045000851105178515AF238511682305138515AB
:10046000AF23851186170617851705178515AF2346
:10047000851168236C1408004E2A803083160313FC
:10048000CE00612AC030CE00612A9430CE00612AAD
:10049000D430CE00612A8030CE00612A8316031347
:1004A0004E08013A03193D2A4E08023A0319422A1E
:1004B0004E08033A0319452A4E08043A0319482AFC
:1004C0004B2A4F03F0004E08F0077008CE0070086A
:1004D000D30097216C108316D10151085007840076
:1004E000000803197C2A5108500784000008D20034
:1004F00089238316D10A6D2A83126C14080083168F
:1005000003134C08F00002307007F1004C08F000B3
:10051000700A84000008F0007108840070088000F0
:100520004C08F0007008840000084B05F1007108C9
:10053000003A031DA22A4C08F000700A8400013022
:100540008000A72A4C08F000700A840080014B0844
:10055000393A0319B72AFF304802031DB12AFE3089
:1005600047020318B62AC70A0319C80AB92AC701DD
:10057000C8010800CC2A803083160313CB00DF2A81
:10058000C030CB00DF2A9430CB00DF2AD430CB0040
:10059000DF2A8030CB00DF2A831603134B08013A91
:1005A0000319BB2A4B08023A0319C02A4B08033A25
:1005B0000319C32A4B08043A0319C62AC92A4C0353
:1005C000F0004B08F0077008CB0083126C14700821
:1005D0008316D30097216C1083164D08D300972102
:1005E0006C1408002030831603134802031DFA2AF6
:1005F00000304702031CFE2A5E30B0000130CE00FE
:100600000130CF00A130D0003C2267080319192B1C
:100610004F3083164802031D0F2BFF304702031C87
:10062000192B0230CE000130CF003B30D0003C22ED
:10063000212B02308316CE000130CF00B330D00022
:100640003C22080083160313CD014B0884000008E8
:10065000CC004C08003A0319382B4C08CE00732309
:100660008316CD0A4D084B0784000008CC00292BC7
:100670000800831603134B08F000700884004C0830
:1006800080004B08F000700A840080014B08F000E5
:100690000230700784008001080083160313981647
:1006A00090308312980083168614061183128C1ED4
:1006B0005C2B1A08F000562B0800831203131A084B
:1006C000F100981C652B181218167108F00008002C
:1006D000083083120313FC002330FD00FD0B6E2B4A
:1006E000FC0B6E2B0800831603139818792B00005F
:1006F000732B4E08831299000800A1238A110A1255
:100700008000840AC90A0319CA0AF003031D7D2B5D
:100710000800831203136C1083165208D30097212C
:100720006C140800103083120313FD00FD0B962B90
:10073000000008000030831203138C1A0130F0000F
:100740000800831603134A088A004908820008003B
:1007500000308316031398180130F00008000000E1
:10076000080004340634FF34FF34FF341034FC3402
:10077000E8340034563431342E343034203462348A
:100780006D346434003404340634FF34FF34FF34F1
:100790000034FC340034003445344E345434453491
:1007A0005234203443344F344D344D34493453346F
:1007B000533449344F344E340034563445344E3477
:1007C00054342D3441345834493441342034523473
:1007D00065346D346F3474346534003420308400F3
:1007E0003D3083120313F000B1308316C90003308B
:1007F000CA007D230800FF3FFF3FFF3FFF3FFF3F51
:02400E00782117
:00000001FF
