:100000009029FF3FFF3F00000800083083120313D0
:10001000FC002330FD00FD0B0B28FC0B0B28080017
:10002000103083120313FD00FD0B1428000008009C
:1000300083160313BA1B1F288312861321288312E9
:10004000861783163A1B2728831206132928831242
:1000500006178316BA1A2F288312851331288312A4
:10006000851783163A1A3728831205133928831205
:1000700005176E1A3D2805163E2805128515032022
:1000800085118316BA1947288312861349288312CB
:10009000861783163A194F288312061351288312A4
:1000A00006178316BA185728831285135928831206
:1000B000851783163A185F28831205136128831267
:1000C00005176E1A65280516662805128515032082
:1000D00085116E1E6D2805206E28102008008312E1
:1000E00003136E1283163908BA0018206E16080022
:1000F0008316031332088A00310882000800A530F5
:1001000083120313FD00FD0B83280000000008008C
:100110008316031398188E28000088283908831244
:100120009900080083160313B8013408F100013068
:10013000F00071080319A028F00D7010FF3E9A28F6
:100140007008B7003308840070080005F1007108DA
:100150000130031D0030F0003608F0060319C928ED
:100160003508003C0318B9287F207F208316B5038B
:10017000B0283308840037080005F1007108013009
:10018000031D0030F0003608F0060319C928FF30BF
:10019000B8003808F0000800831603139816903052
:1001A0008312980083168614061183128C1EDB2896
:1001B0001A08F000D5280800EE28803083160313B3
:1001C000B3000129C030B30001299430B3000129E4
:1001D000D430B30001298030B30001298316031302
:1001E0003308013A0319DD283308023A0319E228DB
:1001F0003308033A0319E5283308043A0319E828B9
:10020000EB283403F0003308F0077008B3007008DF
:10021000BA0018206E128316B6013608350784001E
:10022000000803191C293608350784000008B900A6
:100230006F208316B60A0D2983126E1608008316E6
:1002400003138511051205138513061386138312F4
:100250008511051286130613851305130520052045
:10026000052085170517851503208511052085159F
:100270000320851105208515032085110520051310
:10028000851503208511052085150320851185130B
:1002900086178515032085110520861305178515FA
:1002A000032085110513851503208511052085156B
:1002B00003208511051785150320851105200513D9
:1002C00085150320851186170617851705178515CF
:1002D0000320851105206E16080083160313B5014F
:1002E000330884000008B4003408003A0319832955
:1002F0003408B90088208316B50A3508330784000E
:100300000008B4007429080078208A110A128000BD
:10031000840AB10A0319B20AF003031D84290800F4
:100320001223013083120313EF0083168501860127
:10033000013083126F05F0007018A0290511A12962
:100340000515831606148615061686167F30810558
:100350001F2108308316BA00182017308316BA0000
:10036000182014308316BA00182001308316BA0002
:1003700018200C308316BA00182006308316BA00F5
:10038000182002308316BA00182001308316BA00F4
:1003900018200C308316BA00182001308316B300E1
:1003A0000130B4004230B500DC2002308316B300C7
:1003B0000130B4003930B500DC20193083169900C3
:1003C0001815CC200D30FC00FB30FD00FD0BE6299C
:1003D000FC0BE62900000000EE116E11EE106E100D
:1003E00020308316B3006D211030FB003930FC0043
:1003F0000D30FD00FD0BFA29FC0BFA29FB0BFA2945
:10040000000000000130BA00182006308316B30047
:10041000B4010130B500B6019220700803191B2AFF
:100420003430B3006D210230B3000130B4003030FD
:10043000B500DC20232A02308316B3000130B4005B
:100440005330B500DC2006308316B3000330B4000F
:100450000130B500B6019220700803193A2AA03085
:10046000B3006D210230B3000530B4006B30B5002D
:10047000DC20422A02308316B3000530B400683015
:10048000B500DC2006308316B3000430B400013020
:10049000B500B601922070080319592AAC30B30098
:1004A0006D210230B3000830B400A830B500DC2064
:1004B000612A02308316B3000830B400A430B500BE
:1004C000DC2006308316B3000530B4000130B500DF
:1004D000B601922070080319782A5F30B3006D21AD
:1004E0000230B3000C30B4005B30B500DC20802A51
:1004F00002308316B3000C30B4005730B500DC2056
:100500006F08003A031D8C2A01308316B3000130B6
:10051000B4006630B500DC206F087F3A031D982ACE
:1005200001308316B3000130B4006430B500DC2024
:1005300001306F05F00070189F2A0511A02A0515DB
:10054000EF0A0D30FC00FB30FD00FD0BA52AFC0B73
:10055000A52A00000000052AAC2AFF3FFF3FFF3F0D
:10056000FF3FFF3F563445344E3454342D3441342C
:100570005834493441343A34203442344D344434CC
:100580000A340034443457344E340034443457343D
:100590004E340A34003442344D34443420347634FA
:1005A00031342E3430340034563445344E345434DF
:1005B0002D34413458344934413420345234653474
:1005C0006D346F347434653400342D342D342D344F
:1005D00000342D342D342D340034463441344E341F
:1005E0000034463441344E340A340034203400346C
:1005F0002A3400342D342D34003455345034003432
:10060000553450340A3400342D342D342D34003414
:1006100053344534543400345334453454340A3458
:100620000034FF3F203084004E3083120313F0006B
:10063000B2308316B1000230B2008421A0308400B1
:100640001130F00000308316B1000330B200842175
:100650000800FF3FFF3FFF3FFF3FFF3FFF3FFF3FE0
:02400E00782117
:00000001FF
